{
  "contractName": "InvestPool",
  "abi": [
    {
      "constant": true,
      "inputs": [],
      "name": "icoWorldAddress",
      "outputs": [
        {
          "name": "",
          "type": "address"
        }
      ],
      "payable": false,
      "stateMutability": "view",
      "type": "function"
    },
    {
      "constant": true,
      "inputs": [],
      "name": "projectAddress",
      "outputs": [
        {
          "name": "",
          "type": "address"
        }
      ],
      "payable": false,
      "stateMutability": "view",
      "type": "function"
    },
    {
      "constant": true,
      "inputs": [],
      "name": "icoWorldCommision",
      "outputs": [
        {
          "name": "",
          "type": "uint256"
        }
      ],
      "payable": false,
      "stateMutability": "view",
      "type": "function"
    },
    {
      "constant": true,
      "inputs": [],
      "name": "isInvest",
      "outputs": [
        {
          "name": "",
          "type": "bool"
        }
      ],
      "payable": false,
      "stateMutability": "view",
      "type": "function"
    },
    {
      "constant": true,
      "inputs": [],
      "name": "poolCommision",
      "outputs": [
        {
          "name": "",
          "type": "uint256"
        }
      ],
      "payable": false,
      "stateMutability": "view",
      "type": "function"
    },
    {
      "constant": true,
      "inputs": [],
      "name": "maxTotalAmount",
      "outputs": [
        {
          "name": "",
          "type": "uint256"
        }
      ],
      "payable": false,
      "stateMutability": "view",
      "type": "function"
    },
    {
      "constant": true,
      "inputs": [],
      "name": "minTotalAmountForOne",
      "outputs": [
        {
          "name": "",
          "type": "uint256"
        }
      ],
      "payable": false,
      "stateMutability": "view",
      "type": "function"
    },
    {
      "constant": true,
      "inputs": [
        {
          "name": "",
          "type": "address"
        }
      ],
      "name": "investments",
      "outputs": [
        {
          "name": "",
          "type": "uint256"
        }
      ],
      "payable": false,
      "stateMutability": "view",
      "type": "function"
    },
    {
      "constant": true,
      "inputs": [],
      "name": "minTotalAmount",
      "outputs": [
        {
          "name": "",
          "type": "uint256"
        }
      ],
      "payable": false,
      "stateMutability": "view",
      "type": "function"
    },
    {
      "constant": true,
      "inputs": [],
      "name": "tokenBalance",
      "outputs": [
        {
          "name": "",
          "type": "uint256"
        }
      ],
      "payable": false,
      "stateMutability": "view",
      "type": "function"
    },
    {
      "constant": true,
      "inputs": [],
      "name": "maxTotalAmountForOne",
      "outputs": [
        {
          "name": "",
          "type": "uint256"
        }
      ],
      "payable": false,
      "stateMutability": "view",
      "type": "function"
    },
    {
      "constant": true,
      "inputs": [],
      "name": "criticalDate",
      "outputs": [
        {
          "name": "",
          "type": "uint256"
        }
      ],
      "payable": false,
      "stateMutability": "view",
      "type": "function"
    },
    {
      "constant": true,
      "inputs": [],
      "name": "balance",
      "outputs": [
        {
          "name": "",
          "type": "uint256"
        }
      ],
      "payable": false,
      "stateMutability": "view",
      "type": "function"
    },
    {
      "constant": true,
      "inputs": [],
      "name": "start",
      "outputs": [
        {
          "name": "",
          "type": "uint256"
        }
      ],
      "payable": false,
      "stateMutability": "view",
      "type": "function"
    },
    {
      "constant": true,
      "inputs": [],
      "name": "poolOwner",
      "outputs": [
        {
          "name": "",
          "type": "address"
        }
      ],
      "payable": false,
      "stateMutability": "view",
      "type": "function"
    },
    {
      "constant": true,
      "inputs": [
        {
          "name": "",
          "type": "uint256"
        }
      ],
      "name": "addresses",
      "outputs": [
        {
          "name": "",
          "type": "address"
        }
      ],
      "payable": false,
      "stateMutability": "view",
      "type": "function"
    },
    {
      "constant": true,
      "inputs": [],
      "name": "period",
      "outputs": [
        {
          "name": "",
          "type": "uint256"
        }
      ],
      "payable": false,
      "stateMutability": "view",
      "type": "function"
    },
    {
      "inputs": [
        {
          "name": "_projectAddress",
          "type": "address"
        },
        {
          "name": "_maxTotalAmount",
          "type": "uint256"
        },
        {
          "name": "_minTotalAmount",
          "type": "uint256"
        },
        {
          "name": "_maxTotalAmountForOne",
          "type": "uint256"
        },
        {
          "name": "_minTotalAmountForOne",
          "type": "uint256"
        },
        {
          "name": "_poolCommision",
          "type": "uint256"
        },
        {
          "name": "_icoWorldCommision",
          "type": "uint256"
        },
        {
          "name": "_poolOwner",
          "type": "address"
        },
        {
          "name": "_start",
          "type": "uint256"
        },
        {
          "name": "_period",
          "type": "uint256"
        },
        {
          "name": "_criticalDate",
          "type": "uint256"
        }
      ],
      "payable": false,
      "stateMutability": "nonpayable",
      "type": "constructor"
    },
    {
      "payable": true,
      "stateMutability": "payable",
      "type": "fallback"
    },
    {
      "constant": true,
      "inputs": [
        {
          "name": "_address",
          "type": "address"
        }
      ],
      "name": "getData",
      "outputs": [
        {
          "name": "",
          "type": "uint256"
        }
      ],
      "payable": false,
      "stateMutability": "view",
      "type": "function"
    },
    {
      "constant": true,
      "inputs": [
        {
          "name": "_number",
          "type": "uint256"
        }
      ],
      "name": "getAddressByNumber",
      "outputs": [
        {
          "name": "",
          "type": "address"
        }
      ],
      "payable": false,
      "stateMutability": "view",
      "type": "function"
    },
    {
      "constant": true,
      "inputs": [],
      "name": "getPoolCommision",
      "outputs": [
        {
          "name": "",
          "type": "uint256"
        }
      ],
      "payable": false,
      "stateMutability": "view",
      "type": "function"
    },
    {
      "constant": true,
      "inputs": [],
      "name": "getIsInvest",
      "outputs": [
        {
          "name": "",
          "type": "bool"
        }
      ],
      "payable": false,
      "stateMutability": "view",
      "type": "function"
    },
    {
      "constant": false,
      "inputs": [],
      "name": "investProject",
      "outputs": [
        {
          "name": "",
          "type": "bool"
        }
      ],
      "payable": true,
      "stateMutability": "payable",
      "type": "function"
    },
    {
      "constant": false,
      "inputs": [],
      "name": "getTokens",
      "outputs": [
        {
          "name": "",
          "type": "bool"
        }
      ],
      "payable": false,
      "stateMutability": "nonpayable",
      "type": "function"
    },
    {
      "constant": false,
      "inputs": [],
      "name": "refund",
      "outputs": [
        {
          "name": "",
          "type": "bool"
        }
      ],
      "payable": false,
      "stateMutability": "nonpayable",
      "type": "function"
    }
  ],
  "bytecode": "0x60806040526000600c60006101000a81548160ff021916908315150217905550600160009054906101000a900473ffffffffffffffffffffffffffffffffffffffff16601160006101000a81548173ffffffffffffffffffffffffffffffffffffffff021916908373ffffffffffffffffffffffffffffffffffffffff16021790555034801561008e57600080fd5b506040516101608061111d8339810180604052810190808051906020019092919080519060200190929190805190602001909291908051906020019092919080519060200190929190805190602001909291908051906020019092919080519060200190929190805190602001909291908051906020019092919080519060200190929190505050336000806101000a81548173ffffffffffffffffffffffffffffffffffffffff021916908373ffffffffffffffffffffffffffffffffffffffff1602179055508a600160006101000a81548173ffffffffffffffffffffffffffffffffffffffff021916908373ffffffffffffffffffffffffffffffffffffffff16021790555089600281905550886003819055508760048190555086600581905550856006819055508460078190555083600860006101000a81548173ffffffffffffffffffffffffffffffffffffffff021916908373ffffffffffffffffffffffffffffffffffffffff1602179055508260098190555081600a8190555080600b819055505050505050505050505050610eec806102316000396000f30060806040526004361061013e576000357c0100000000000000000000000000000000000000000000000000000000900463ffffffff168063039ba247146102ad57806338266b22146103045780633cf96af11461035b5780634e0f9c16146103b2578063590e1ae3146103dd5780636131fd7a1461040c57806369cce2e71461043b5780637bde3a46146104665780638e1018671461048857806391d31ce8146104b357806396b98862146104de57806399f18eb3146105355780639e1a4d1914610560578063a0efa3a71461058b578063a4aee2e8146105b6578063aa6ca808146105e5578063b2e53c8d14610614578063b69ef8a81461063f578063be9a65551461066a578063cf0b227014610695578063e9238cc4146106ec578063edf26d9b14610759578063ef78d4fd146107c6578063f424b0df146107f1575b6009544211801561015c5750603c806018600a540202026009540142105b801561016e575060025434600f540111155b801561017c57506005543410155b801561018a57506004543411155b151561019557600080fd5b6101e734600d60003373ffffffffffffffffffffffffffffffffffffffff1673ffffffffffffffffffffffffffffffffffffffff1681526020019081526020016000205461081c90919063ffffffff16565b600d60003373ffffffffffffffffffffffffffffffffffffffff1673ffffffffffffffffffffffffffffffffffffffff16815260200190815260200160002081905550600e3390806001815401808255809150509060018203906000526020600020016000909192909190916101000a81548173ffffffffffffffffffffffffffffffffffffffff021916908373ffffffffffffffffffffffffffffffffffffffff160217905550506102a534600f5461081c90919063ffffffff16565b600f81905550005b3480156102b957600080fd5b506102c261083a565b604051808273ffffffffffffffffffffffffffffffffffffffff1673ffffffffffffffffffffffffffffffffffffffff16815260200191505060405180910390f35b34801561031057600080fd5b50610345600480360381019080803573ffffffffffffffffffffffffffffffffffffffff16906020019092919050505061085f565b6040518082815260200191505060405180910390f35b34801561036757600080fd5b506103706108e2565b604051808273ffffffffffffffffffffffffffffffffffffffff1673ffffffffffffffffffffffffffffffffffffffff16815260200191505060405180910390f35b3480156103be57600080fd5b506103c7610908565b6040518082815260200191505060405180910390f35b3480156103e957600080fd5b506103f261090e565b604051808215151515815260200191505060405180910390f35b34801561041857600080fd5b50610421610a0c565b604051808215151515815260200191505060405180910390f35b34801561044757600080fd5b50610450610a1f565b6040518082815260200191505060405180910390f35b61046e610a25565b604051808215151515815260200191505060405180910390f35b34801561049457600080fd5b5061049d610b47565b6040518082815260200191505060405180910390f35b3480156104bf57600080fd5b506104c8610b4d565b6040518082815260200191505060405180910390f35b3480156104ea57600080fd5b5061051f600480360381019080803573ffffffffffffffffffffffffffffffffffffffff169060200190929190505050610b53565b6040518082815260200191505060405180910390f35b34801561054157600080fd5b5061054a610b6b565b6040518082815260200191505060405180910390f35b34801561056c57600080fd5b50610575610b71565b6040518082815260200191505060405180910390f35b34801561059757600080fd5b506105a0610b77565b6040518082815260200191505060405180910390f35b3480156105c257600080fd5b506105cb610b7d565b604051808215151515815260200191505060405180910390f35b3480156105f157600080fd5b506105fa610b94565b604051808215151515815260200191505060405180910390f35b34801561062057600080fd5b50610629610da9565b6040518082815260200191505060405180910390f35b34801561064b57600080fd5b50610654610daf565b6040518082815260200191505060405180910390f35b34801561067657600080fd5b5061067f610db5565b6040518082815260200191505060405180910390f35b3480156106a157600080fd5b506106aa610dbb565b604051808273ffffffffffffffffffffffffffffffffffffffff1673ffffffffffffffffffffffffffffffffffffffff16815260200191505060405180910390f35b3480156106f857600080fd5b5061071760048036038101908080359060200190929190505050610de1565b604051808273ffffffffffffffffffffffffffffffffffffffff1673ffffffffffffffffffffffffffffffffffffffff16815260200191505060405180910390f35b34801561076557600080fd5b5061078460048036038101908080359060200190929190505050610e24565b604051808273ffffffffffffffffffffffffffffffffffffffff1673ffffffffffffffffffffffffffffffffffffffff16815260200191505060405180910390f35b3480156107d257600080fd5b506107db610e62565b6040518082815260200191505060405180910390f35b3480156107fd57600080fd5b50610806610e68565b6040518082815260200191505060405180910390f35b600080828401905083811015151561083057fe5b8091505092915050565b6000809054906101000a900473ffffffffffffffffffffffffffffffffffffffff1681565b60003373ffffffffffffffffffffffffffffffffffffffff168273ffffffffffffffffffffffffffffffffffffffff1614151561089b57600080fd5b600d60008373ffffffffffffffffffffffffffffffffffffffff1673ffffffffffffffffffffffffffffffffffffffff168152602001908152602001600020549050919050565b600160009054906101000a900473ffffffffffffffffffffffffffffffffffffffff1681565b60075481565b600080600b544211801561092f5750600c60009054906101000a900460ff16155b151561093a57600080fd5b600d60003373ffffffffffffffffffffffffffffffffffffffff1673ffffffffffffffffffffffffffffffffffffffff1681526020019081526020016000205490506000600d60003373ffffffffffffffffffffffffffffffffffffffff1673ffffffffffffffffffffffffffffffffffffffff168152602001908152602001600020819055503373ffffffffffffffffffffffffffffffffffffffff166108fc829081150290604051600060405180830381858888f19350505050158015610a07573d6000803e3d6000fd5b505090565b600c60009054906101000a900460ff1681565b60065481565b6000600860009054906101000a900473ffffffffffffffffffffffffffffffffffffffff1673ffffffffffffffffffffffffffffffffffffffff163373ffffffffffffffffffffffffffffffffffffffff16141515610a8357600080fd5b6000809054906101000a900473ffffffffffffffffffffffffffffffffffffffff1673ffffffffffffffffffffffffffffffffffffffff166108fc610afd6064610aef6007543073ffffffffffffffffffffffffffffffffffffffff1631610e7290919063ffffffff16565b610ea590919063ffffffff16565b9081150290604051600060405180830381858888f19350505050158015610b28573d6000803e3d6000fd5b506001600c60006101000a81548160ff02191690831515021790555090565b60025481565b60055481565b600d6020528060005260406000206000915090505481565b60035481565b60105481565b60045481565b6000600c60009054906101000a900460ff16905090565b600080610c29610bee600f54600d60003373ffffffffffffffffffffffffffffffffffffffff1673ffffffffffffffffffffffffffffffffffffffff16815260200190815260200160002054610ea590919063ffffffff16565b610c1b601054610c0a6064600654610ea590919063ffffffff16565b600103610e7290919063ffffffff16565b610e7290919063ffffffff16565b90506000600d60003373ffffffffffffffffffffffffffffffffffffffff1673ffffffffffffffffffffffffffffffffffffffff16815260200190815260200160002081905550601160009054906101000a900473ffffffffffffffffffffffffffffffffffffffff1673ffffffffffffffffffffffffffffffffffffffff166323b872dd3033846040518463ffffffff167c0100000000000000000000000000000000000000000000000000000000028152600401808473ffffffffffffffffffffffffffffffffffffffff1673ffffffffffffffffffffffffffffffffffffffff1681526020018373ffffffffffffffffffffffffffffffffffffffff1673ffffffffffffffffffffffffffffffffffffffff1681526020018281526020019350505050602060405180830381600087803b158015610d6957600080fd5b505af1158015610d7d573d6000803e3d6000fd5b505050506040513d6020811015610d9357600080fd5b8101908080519060200190929190505050505090565b600b5481565b600f5481565b60095481565b600860009054906101000a900473ffffffffffffffffffffffffffffffffffffffff1681565b6000600e82815481101515610df257fe5b9060005260206000200160009054906101000a900473ffffffffffffffffffffffffffffffffffffffff169050919050565b600e81815481101515610e3357fe5b906000526020600020016000915054906101000a900473ffffffffffffffffffffffffffffffffffffffff1681565b600a5481565b6000600654905090565b60008082840290506000841480610e935750828482811515610e9057fe5b04145b1515610e9b57fe5b8091505092915050565b6000808284811515610eb357fe5b04905080915050929150505600a165627a7a723058209ad221f30725fe0a97022a8badca028a6e550606e0bb5ba252930a532a0fae980029",
  "source": "pragma solidity ^0.4.16;\r\n\r\n/**\r\n * @title SafeMath\r\n * @dev Math operations with safety checks that throw on error\r\n */\r\nlibrary SafeMath {\r\n    \r\n  function mul(uint256 a, uint256 b) internal constant returns (uint256) {\r\n    uint256 c = a * b;\r\n    assert(a == 0 || c / a == b);\r\n    return c;\r\n  }\r\n \r\n  function div(uint256 a, uint256 b) internal constant returns (uint256) {\r\n    // assert(b > 0); // Solidity automatically throws when dividing by 0\r\n    uint256 c = a / b;\r\n    // assert(a == b * c + a % b); // There is no case in which this doesn't hold\r\n    return c;\r\n  }\r\n \r\n  function sub(uint256 a, uint256 b) internal constant returns (uint256) {\r\n    assert(b <= a);\r\n    return a - b;\r\n  }\r\n \r\n  function add(uint256 a, uint256 b) internal constant returns (uint256) {\r\n    uint256 c = a + b;\r\n    assert(c >= a);\r\n    return c;\r\n  }\r\n  \r\n}\r\n\r\ncontract ProjectInterface {\r\n  function totalSupply() public view returns (uint256);\r\n\r\n  function balanceOf(address _who) public view returns (uint256);\r\n\r\n  function allowance(address _owner, address _spender)\r\n    public view returns (uint256);\r\n\r\n  function transfer(address _to, uint256 _value) public returns (bool);\r\n\r\n  function approve(address _spender, uint256 _value)\r\n    public returns (bool);\r\n\r\n  function transferFrom(address _from, address _to, uint256 _value)\r\n    public returns (bool);\r\n\r\n  event Transfer(\r\n    address indexed from,\r\n    address indexed to,\r\n    uint256 value\r\n  );\r\n\r\n  event Approval(\r\n    address indexed owner,\r\n    address indexed spender,\r\n    uint256 value\r\n  );\r\n}\r\n\r\ncontract InvestPool {\r\n    \r\n        using SafeMath for uint256;\r\n        \r\n        address public icoWorldAddress;\r\n\r\n\t\taddress public projectAddress; \r\n    \r\n\t\tuint256 public maxTotalAmount;\r\n\t\t\r\n\t\tuint256 public minTotalAmount;\r\n\t\t\r\n\t\tuint256 public maxTotalAmountForOne;\r\n\t\t\r\n\t\tuint256 public minTotalAmountForOne;\r\n\t\t\r\n\t\tuint256 public poolCommision;\r\n\t\t\r\n\t\tuint256 public icoWorldCommision;\r\n\t\t\r\n\t\taddress public poolOwner;\r\n\t\t\r\n\t\tuint256 public start;\r\n\t\t\r\n\t\tuint256 public period;\r\n\t\t\r\n\t\tuint256 public criticalDate;\r\n\t\t\r\n\t\tbool public isInvest = false;\r\n\t\t\r\n\t\tmapping (address => uint256) public investments;\r\n\t\t\r\n\t\taddress[] public addresses;\r\n\t\t\r\n\t\tuint256 public balance;\r\n\t\t\r\n\t\tuint256 public tokenBalance;\r\n\t\t\r\n\t\tProjectInterface ProjectContract = ProjectInterface(projectAddress);\r\n\t\t\r\n\t\tmodifier onlyOwner() {\r\n\t\t\trequire(msg.sender == poolOwner);\r\n\t\t\t_;\r\n\t\t}\r\n\t\t\r\n\t\tconstructor (address _projectAddress,\r\n\t\t\t\t\t\t\tuint256 _maxTotalAmount, \r\n\t\t\t\t\t\t\tuint256 _minTotalAmount,\r\n\t\t\t\t\t\t\tuint256\t_maxTotalAmountForOne,\r\n\t\t\t\t\t\t\tuint256 _minTotalAmountForOne,\r\n\t\t\t\t\t\t\tuint256 _poolCommision,\r\n\t\t\t\t\t\t\tuint256 _icoWorldCommision,\r\n\t\t\t\t\t\t\taddress _poolOwner,\r\n\t\t\t\t\t\t\tuint256 _start,\r\n\t\t\t\t\t\t\tuint256 _period,\r\n\t\t\t\t\t\t\tuint256 _criticalDate) public {\r\n\t\t\ticoWorldAddress = msg.sender;\r\n\t\t\tprojectAddress = _projectAddress;\r\n\t\t\tmaxTotalAmount = _maxTotalAmount;\r\n\t\t\tminTotalAmount = _minTotalAmount;\r\n\t\t\tmaxTotalAmountForOne = _maxTotalAmountForOne;\r\n\t\t\tminTotalAmountForOne = _minTotalAmountForOne;\r\n\t\t\tpoolCommision = _poolCommision;\r\n\t\t\ticoWorldCommision = _icoWorldCommision;\r\n\t\t\tpoolOwner = _poolOwner;\r\n\t\t\tstart = _start;\r\n\t\t\tperiod = _period;\r\n\t\t\tcriticalDate = _criticalDate;\r\n\t\t}\r\n\t\t\r\n\t\t/**\r\n\t\t* @dev Function to send eth to the smart contract.\r\n\t\t*/\r\n\t\tfunction() external payable {\r\n        require(now > start && now < start + period*24*60*60 && (balance + msg.value) <= maxTotalAmount && msg.value >= minTotalAmountForOne && msg.value <= maxTotalAmountForOne);\r\n        investments[msg.sender] = investments[msg.sender].add(msg.value);\r\n        addresses.push(msg.sender);\r\n        balance = balance.add(msg.value);\r\n    }\r\n    \r\n\t\t/**\r\n\t\t* @dev Function to check the amount of investment.\r\n\t\t* @param _address Investor's address.\r\n\t\t* @return A uint256 specifing the amount of investment.\r\n\t\t*/\r\n\t\tfunction getData(address _address) public view returns(uint256) {\r\n\t\t\trequire(_address == msg.sender);\r\n\t\t\treturn investments[_address];\r\n\t\t}\r\n\t\t\r\n\t\t/**\r\n\t\t* @dev Function to get address by number.\r\n\t\t* @param _number number.\r\n\t\t* @return address by number.\r\n\t\t*/\r\n\t\tfunction getAddressByNumber(uint256 _number) public view returns(address){\r\n            return addresses[_number];\r\n        }\r\n\t\t\r\n\t\t\r\n\t\t/**\r\n\t\t* @dev Function to get the poolCommision.\r\n\t\t* @return A uint256 poolCommision.\r\n\t\t*/\r\n\t\tfunction getPoolCommision() public view returns(uint256) {\r\n\t\t\treturn poolCommision;\r\n\t\t}\r\n\t\t\r\n\t\tfunction getIsInvest() public view returns(bool) {\r\n\t\t\treturn isInvest;\r\n\t\t}\r\n\t\t\r\n    \r\n\t\t/**\r\n\t\t* @dev Function for owner to send eth to the project.\r\n\t\t* @return A bool specifing the result.\r\n\t\t*/\r\n\t\tfunction investProject() public onlyOwner payable returns(bool) {\r\n\t\t\t//require((now > start + period*24*60*60) && (now < criticalDate) && (address(this).balance >= minTotalAmount));\r\n\t\t\ticoWorldAddress.transfer(address(this).balance.mul(icoWorldCommision).div(100));\r\n\t\t\t//projectAddress.transfer(address(this).balance);\r\n\t\t\t//tokenBalance = ProjectContract.balanceOf(address(this));\r\n\t\t\tisInvest = true;\r\n\t\t}\r\n    \r\n\t\t/**\r\n\t\t* @dev Function for investors to get the tokens.\r\n\t\t* @return A bool specifing the result.\r\n\t\t*/\r\n\t\tfunction getTokens() public returns(bool) {\r\n\t\t\tuint256 value = (1 - poolCommision.div(100)).mul(tokenBalance).mul(investments[msg.sender].div(balance));\r\n\t\t\tinvestments[msg.sender] = 0;\r\n\t\t\tProjectContract.transferFrom(address(this), msg.sender, value);\r\n\t\t}\r\n    \r\n\t\t/**\r\n\t\t* @dev Function for investors to return the invested eth (after a critical date in case the money was not sent in the project).\r\n\t\t* @return A bool specifing the result.\r\n\t\t*/\r\n\t\tfunction refund() public returns(bool) {\r\n\t\t\trequire(now > criticalDate && !(isInvest));\r\n\t\t\tuint256 value = investments[msg.sender]; \r\n\t\t\tinvestments[msg.sender] = 0; \r\n\t\t\tmsg.sender.transfer(value); \r\n\t\t\t} \r\n\t\t}",
  "sourcePath": "C:\\Users\\Alex\\Desktop\\solidity-test-example\\contracts\\InvestPool.sol",
  "compiler": {
    "name": "solc",
    "version": "0.4.24+commit.e67f0147.Emscripten.clang"
  },
  "schemaVersion": "2.0.1",
  "updatedAt": "2018-09-03T15:51:45.401Z"
}