{
  "contractName": "Project",
  "abi": [
    {
      "constant": true,
      "inputs": [],
      "name": "balance",
      "outputs": [
        {
          "name": "",
          "type": "uint256"
        }
      ],
      "payable": false,
      "stateMutability": "view",
      "type": "function"
    },
    {
      "constant": false,
      "inputs": [],
      "name": "transfer",
      "outputs": [],
      "payable": true,
      "stateMutability": "payable",
      "type": "function"
    }
  ],
  "bytecode": "0x608060405234801561001057600080fd5b5060bd8061001f6000396000f3006080604052600436106049576000357c0100000000000000000000000000000000000000000000000000000000900463ffffffff1680638a4068dd14604e578063b69ef8a8146056575b600080fd5b6054607e565b005b348015606157600080fd5b506068608b565b6040518082815260200191505060405180910390f35b3460005401600081905550565b600054815600a165627a7a72305820fe74c63d624dbdda77cd28e3bfedc2bf92827af4d574ac4498a8c0f86ff4b1400029",
  "source": "pragma solidity ^0.4.13;\r\n\r\ncontract Project {\r\n\r\n\tuint256 public balance;\r\n\t\r\n\tfunction transfer() payable public{\r\n\tbalance = balance + msg.value;\r\n}\r\n    \r\n}",
  "sourcePath": "C:\\Users\\Alex\\Desktop\\solidity-test-example\\contracts\\Project.sol",
  "compiler": {
    "name": "solc",
    "version": "0.4.24+commit.e67f0147.Emscripten.clang"
  },
  "schemaVersion": "2.0.1",
  "updatedAt": "2018-09-03T15:51:45.398Z"
}